:020000040800F2
:100000000000082095250008C9250008791400087B
:1000100081140008891400089114000800000000F1
:10002000000000000000000000000000C9250008DA
:10003000C925000800000000C9250008C9250008DE
:10004000C9250008C9250008C9250008C9250008D8
:10005000C9250008C9250008C9250008C9250008C8
:10006000C9250008C9250008C9250008C9250008B8
:10007000C9250008C9250008C9250008C9250008A8
:10008000C9250008C9250008C92500081D40000829
:10009000F93F0008C925000829400008C9250008C3
:1000A000C9250008C9250008C9250008C925000878
:1000B000C9250008C9250008C9250008C925000868
:1000C000C9250008C9250008C9250008C925000858
:1000D000C9250008C9250008C9250008C925000848
:1000E000C9250008C9250008C9250008C925000838
:1000F000C9250008C9250008C9250008C925000828
:10010000C9250008C9250008C9250008C925000817
:10011000C9250008C9250008C9250008C925000807
:10012000C9250008C9250008C9250008C9250008F7
:10013000C9250008C9250008C92500083540000860
:1001400005400008C925000841400008C9250008ED
:10015000C9250008C9250008C9250008C9250008C7
:10016000C9250008C9250008C9250008C9250008B7
:10017000C9250008C9250008C9250008000000009D
:10018000C9250008C9250008C9250008C925000897
:10019000C9250008C9250008C9250008C925000887
:1001A000C9250008C9250008C9250008C925000877
:1001B000C9250008C9250008C9250008C925000867
:1001C000C9250008C925000800000000C92500084D
:1001D000C9250008C9250008C9250008C925000847
:1001E0004D40000811400008C9250008594000088A
:1001F000C9250008C925000810B5054C237833B976
:10020000044B13B10448AFF300800123237010BDE9
:10021000D00E00200000000074660E0808B5034BE5
:100220001BB103490348AFF3008008BD0000000084
:10023000D40E002074660E08A3F5803A704700BF04
:10024000174B002B08BF134B9D46FFF7F5FF00210E
:100250008B460F461348144A121A18F0B7FD0E4B7E
:10026000002B00D098470D4B002B00D09847002062
:10027000002104000D000D48002802D00C4802F0B7
:100280003DF818F0A7F82000290002F087F802F0E6
:1002900031F800BF000008000000000061230008E2
:1002A00000000820D00E002048370320FD2200085F
:1002B000000000006FF01500704700BF03681B6965
:1002C000184700BF03689B69184700BF03689B6A13
:1002D000184700BF00290CBF6FF0180000207047BE
:1002E000012070476FF01500704700BF6FF01500D8
:1002F000704700BF11207047704700BF704700BFB4
:1003000000F080BA00F082BA094B10B503F1080181
:10031000044603F1280294330160B430C4E92D236C
:1003200001F066F8204600F05FF9204610BD00BFDE
:10033000F00C02080A4B10B503F1080103F1280282
:100340000446943340F8B81C0438026044F8B839C5
:1003500001F04EF8204600F047F9204610BD00BFDE
:10036000F00C0208094A10B502F1080402F1280154
:10037000943240F8B44CA0F1B404C0E9001201F08A
:1003800037F8204600F030F9204610BDF00C020886
:100390000B4B10B503F12802044603F10801943316
:1003A000B43040F8B41CC4E92D2301F021F82046F4
:1003B00000F01AF92046D02101F0CCFF204610BDF4
:1003C000F00C02080B4A10B502F1080402F12801F2
:1003D000943240F8B44CA0F1B404C0E9001201F02A
:1003E00007F8204600F000F92046D02101F0B2FFC6
:1003F000204610BDF00C02080D4B024610B503F16B
:10040000080403F12801943340F8B84CA0F1B80473
:1004100040F8041C42F80439104600F0E9FF204679
:1004200000F0E2F82046D02101F094FF204610BDF4
:10043000F00C0208704700BF704700BFB43800F0EE
:10044000E1B900BFB43800F0E1B900BF38B50446E7
:100450001D46049B00F052F9294604F1B40000F057
:100460009DFF054B204603F1080103F12802943358
:100470002160C4E92D2338BDF00C020801F1090305
:1004800000EB0313DA6832B100EB01111846D1F822
:100490009C301B6818477047704700BF436863B1C2
:1004A000D0E9032132B103EB6103C90708D48168A5
:1004B0001846104711F0010F00D1704703EB61039C
:1004C00019688A5881681846104700BF2DE9F0471F
:1004D000444B8046002788B048F8903B05463E468E
:1004E00000F14409444600965FFA87FA0396CDE985
:1004F000016601F063F9039B002B4BD0E368002BEE
:100500006BD0E36813B19B68204698476660A6608D
:10051000E660039B266023B15B68694620469847E6
:10052000039B514601224846E36003F0F5FB01F0CE
:100530004FF9039B4BB39B686846103498473FB311
:10054000D5F8AC3005F1A0000BB19B689847D5F801
:100550009C3013B19B6840469847EB6B1BB19B687E
:1005600005F130009847EB6A1BB19B6805F120004C
:100570009847A86908B100F007FD2846B42101F0AA
:10058000E9FE284608B0BDE8F0871034002FD7D127
:100590000127A8E7E3680BB101F066FACDE904662C
:1005A000CDE90666E36813B19B682046984766600C
:1005B000A660E660079B266093B15B6804A92046AD
:1005C0009847079BE36013B19B6804A8984751467E
:1005D0000022484603F0A0FBA9E701F02DFA90E7BE
:1005E000E360F4E7940D02082DE9F047424B8046A2
:1005F000002788B048F8903B06463D4600F1440984
:10060000444600955FFA87FA0395CDE9015501F05C
:10061000D5F8039B002B47D0E368002B67D0E36835
:1006200013B19B68204698476560A560E560039B11
:10063000256023B15B68694620469847039B514675
:1006400001224846E36003F067FB01F0C1F8039B19
:100650002BB39B686846103498471FB3D6F8AC306C
:1006600006F1A0000BB19B689847D6F89C3013B1F7
:100670009B6840469847F36B1BB19B6806F13000BE
:100680009847F36A1BB19B6806F120009847B06950
:1006900008B100F079FC304608B0BDE8F0871034AE
:1006A000002FDBD10127ACE7E3680BB101F0DCF9E7
:1006B000CDE90455CDE90655E36813B19B682046A2
:1006C00098476560A560E560079B256093B15B680E
:1006D00004A920469847079BE36013B19B6804A8D0
:1006E000984751460022484603F016FBADE701F05B
:1006F000A3F994E7E360F4E7940D02082DE9F04FC5
:10070000DFF8FCC0044600253B4E00F144088A4651
:10071000934629464C22A1462F462DED028B87B0E9
:100720008060C0F800C04046666008EE10AAE56030
:1007300004F1900625610DF1080A6561A561A583A4
:1007400025626562A562E56225636563A563E5636D
:10075000A4F84050019318F039FB019BC4F8905065
:10076000C4F89450C4F89850C4F89C50C4F8A050F1
:10077000C4F8A450C4F8A850C4F8AC5049F8B03F2D
:1007800056453046CAF80070CAF80C70CAE90177BD
:100790002DD0F3680BB19B68984777603046B760FF
:1007A0005146F760059B376003B35B689847059B2C
:1007B0005046F360DBB110369B689847B145DFD1F6
:1007C0005A4618EE101A404603F0CAFFD4F8B0108B
:1007D000404604F00DF940462246084903F08EFADF
:1007E000204607B0BDEC028BBDE8F08FF3601036F9
:1007F000B145C5D1E4E700BF9D0400087D040008B1
:10080000940D0208443003F051BB00BF10B50C46F4
:10081000443003F05FFB204610BD00BF0368044A6C
:100820001B69934200D1704700221146184700BF50
:10083000510800080368054A1B69934202D16FF012
:100840001C00704701220021184700BF5108000812
:100850006FF01C00704700BFEFF3108372B6054ABB
:10086000117829B90120DB430349034010700B7054
:10087000704700BFED0E0020EC0E0020034B00215E
:10088000034A1B78117003B162B67047EC0E00206A
:10089000ED0E002038B50D46044603F093FC0135FB
:1008A0000DD023682046E26801211B04136003F089
:1008B0005FFD20460021BDE8384003F055BD38BD3E
:1008C000431C18D0B1F9003010B50446581C82B052
:1008D00004D111E031F90C3F5A1C0DD09C42F9D1E2
:1008E0002046896803F0F0FD2046002102B0BDE8F3
:1008F000104003F0C1BE704700232246024819464B
:10090000009300F0EDFF00BF30010180884203D06A
:10091000431C02D0013102D17047084670470023C2
:1009200002460348194600B583B0009300F0D8FF93
:1009300030010180431C0DD0B1F900305A1C04D1A4
:1009400009E031F90C3F5A1C05D09842F9D14868AA
:10095000411C00D0704700234FF0FF320348194676
:1009600000B583B0009300F0BBFF00BF30010180F1
:100970002DE9F84F0C6894F83A30002B4ED10D4613
:10098000436898472B681B6A984247D0266A002123
:10099000E368861BA268374D1E402062AA4230469B
:1009A00035D094F83BC0BCF1000F39D0A6FB0567E9
:1009B000CCF1200EACF12003CCF1200A07FA0EFE98
:1009C00026FA0CF01D4627FA03F340EA0E0027FA38
:1009D0000CF1184301FA0CFEA36A00FA05F520FA9F
:1009E0000AFAF31800FA0CFC4EEA050EE56A4EEA24
:1009F0000A0E47EB0505B3EB0C084FF0000765EB5B
:100A00000E09B94508BF904529D2C4E90A89D4E93D
:100A10000C32181842EB0101C4E90C01BDE8F88F53
:100A20004FF00009A6FB050190464B461FF092FFD0
:100A3000D4E90A6512EB060A43EB050BCB4508BF68
:100A4000C24502D2C4E90AABE1E7013041F100013D
:100A5000BAEB08026BEB0903C4E90A23D7E70130BC
:100A600041F10001B8EB020269EB0703C4E90A2374
:100A7000CDE700BF40420F002DE9F04F456881B03F
:100A800095F83A3013B995F8393013B101B0BDE893
:100A9000F08F0146044651F8040BFFF769FFD4F8C4
:100AA0000480D8F80410002956D0D8E90C23D1E9E5
:100AB00000018B4208BF824248D2861AD8F81090B3
:100AC00061EB03039B46D8E9062359465B4508BF03
:100AD000B24223D3D8F80830354A934250D098F820
:100AE0003B00002850D0C0F12007A0F1200332467F
:100AF0000BFA00F106FA03F306FA00F0FA400026BA
:100B00001943002317462B4A39438018284A46EBDD
:100B100001011FF01FFF814528BF8146D8F82060E2
:100B2000D8F80C204E44236816401B69304698477D
:100B300023685B6898472B6AB34218D2834298BFF8
:100B4000B0422CBF0120002000289FD023685B69A1
:100B500001B0BDE8F04F18472A69286A236810449D
:100B6000EA681B69104001B0BDE8F04F1847B04279
:100B700028BF83428CBF01200020002886D0E5E7F3
:100B8000B14528BFB146C9E7A3FB06AB0948084AEF
:100B900003FB01BB1AEB00004FF000014FF0000314
:100BA0004BEB01011FF0D6FE814528BF8146B5E71A
:100BB00040420F003F420F0003682DE9F04F80468E
:100BC00083B01B689847D8F80030DB6998470668FF
:100BD000002E57D0002316F1FF3C324643F1FF317F
:100BE0001F244FF0010E01E0013C59D00EFA04F52C
:100BF000E7B2B542F8D14068051F1C2D49D84FF027
:100C0000070A4FF00109274C0AFA05FA09FA00F918
:100C10008AFB044509F1FF391CEB040045EB010197
:100C20001FF098FE044600208B46D8E90023526846
:100C30001860586001939047D8F804500022019B37
:100C400041464FF0010C18620023AC614FF00004E4
:100C500085F83B7051F8040BC5F81CB0C5F810A01E
:100C600085F83A40A5F838C0C5E90269C5E90A2304
:100C7000C5E90C23FFF77CFE404603B0BDE8F04F0A
:100C8000FFF7FABE074A0023DFF820C019461646D0
:100C9000A6E74FF0FF390024034D4FF0E04ABBE7D1
:100CA0002746A8E740420F00FCAC06003F420F0079
:100CB0002DE9F04F054687B000F080FD2B68DB681A
:100CC00098476C6894F83A30002B40F08D800123EF
:100CD000DFF8548184F839306368002B7ED094F8B3
:100CE0003A20002A71D12B685B689847D5F80490A8
:100CF000D9F82030984200F09380266A0021E368FA
:100D0000861BD4F808A020621E40C245304641D060
:100D100094F83B30002B6CD0A6FB0867C3F1200C85
:100D2000A3F12002C3F1200E26FA03F007FA0CFC0F
:100D30009346394627FA02F240EA0C00D9401043A4
:100D4000A26A01FA03FC00FA0BFBB21820FA0EFEAD
:100D500000FA03F34CEA0B0C4FF0000BCDE90467EB
:100D6000059F4CEA0E0CE66A47EB0606D31A009381
:100D700066EB0C030193DDE900235B4508BF524598
:100D80004BD3013041F10001B2EB0A0263EB0B03DC
:100D9000C4E90A23D4E90C23D9F80460101843EB02
:100DA0000101C4E90C014C46D6E90023D4E90C0149
:100DB000994208BF904211D3F36822686360002A09
:100DC0008BD0B06890476C6886E71E46D4E90C016A
:100DD000D6E90023994208BF9042EDD2002328466D
:100DE00084F83930FFF748FE07B0BDE8F04F00F057
:100DF000EFBC4FF0000BA6FB080152465B461FF00C
:100E0000A9FDD4E90A76D219734102920393DDE970
:100E100002235B4508BF5245B3D2C4E90A23B9E7B0
:100E2000D9F804604C46BFE740420F00436893F88E
:100E300038202DE9F04F054683B022B993F83A30B7
:100E40000BB9FFF7B9FE00F0B9FC6C6894F83A30C2
:100E5000002B5BD12B685B6898476D682B6A9842C2
:100E60004BD0236A0021E768C31AA6683D4A3B407D
:100E700020629642184639D094F83BE0BEF1000F4C
:100E800046D0A3FB0212CEF1200CAEF12007CEF12A
:100E9000200821FA0EF002FA0CFCB94622FA07F7F4
:100EA00040EA0C00CDE90012384322FA0EF1009B13
:100EB00001FA0EFCA76A00FA09F920FA08F8DF190E
:100EC00000FA0EFE4CEA090CE26A019B4CEA080C9F
:100ED00043EB0202B7EB0E0A4FF0000762EB0C0B7C
:100EE000BB4508BFB24532D2C4E90AABD4E90C32E3
:100EF000181842EB0101C4E90C01D5E90C4500F0DA
:100F000067FC2046294603B0BDE8F08F2546F4E78C
:100F10000027A3FB020132463B461FF01BFD9C4607
:100F2000A36A12EB0308E36A4CEB0309B94508BF57
:100F3000B04502D2C4E90A89D8E7013041F1000185
:100F4000B8EB060269EB0703C4E90A23CEE70130D8
:100F500041F10001BAEB06026BEB0703C4E90A2377
:100F6000C4E700BF40420F00704700BF0048704711
:100F7000A40D0208024B1B680BB1024818477047CA
:100F8000FC020020A40D0208024B1B6803B11847A5
:100F9000704700BF300F00201C4A1D4910B50B6878
:100FA00004460260086853B3A3684BB1194A13683A
:100FB000A34218D01A465B68A342FBD16368536012
:100FC000154B1A68A24204D038B1237B93B1204656
:100FD00010BD00221A600028F7D10B68002BF4D155
:100FE0000E4B0B60F1E7636813600B4B1A68A2426B
:100FF000EAD1EEE7201F00F01DFE204610BD0028BC
:10100000D2D10B1D0B600868CEE700BFE00D0208CF
:10101000380F0020340F0020400F00203C0F00202C
:101020002049214A10B51368044601601168002B5D
:1010300032D0A3684BB11D4803689C421CD01846AF
:101040005B689C42FBD163684360194B186884421B
:1010500008D059B1237BB3B12046102101F07AF9B1
:10106000204610BD002018600029F3D11368002B22
:10107000F0D1104B1360EDE7636803600C4B186808
:101080008442E6D1EEE7201F00F0D4FD2046102177
:1010900001F060F9204610BD0029CAD1131D13606C
:1010A0001168C6E7E00D0208380F0020340F002059
:1010B000400F00203C0F002030B40F4B00240F4D98
:1010C000027381601A68C0E9005442B11A6811B114
:1010D0000B4C2168206041603AB130BC70471A68FF
:1010E000002AF4D11A1D1A60F0E71A68002AF4D118
:1010F000044A1A60F1E700BF380F0020E00D020833
:10110000340F00203C0F00202DE9F843DFF8C080A9
:1011100007460E46D8F80030D8F80090002B34D09F
:10112000274B1C6814B91AE06468C4B1A568284646
:10113000002DF9D018F024FCB042F5D128463246F3
:10114000394617F00DFD0028EED1B9F1000F0CD192
:10115000D8F800304BB91B4BC8F8003005E0072E1B
:1011600006D0B9F1000F1AD000242046BDE8F8835C
:1011700032463946144817F0F3FC0028F1D1B9F192
:10118000000F14D0114B1C68EFE7B9F1000FC7D165
:1011900008F10403C8F80030D8F80090C0E7D8F888
:1011A0000040002CD7D04C462046BDE8F883D8F844
:1011B0000030002BE6D1034BC8F80030E2E700BF57
:1011C000340F00203C0F0020D00D0208400F0020FB
:1011D000380F0020007B70470020704700207047C8
:1011E0000368012200211B6970B504469847051E5B
:1011F0000DDB23680222002120461B6998472668E0
:10120000034629462046002234691D46A047284649
:1012100070BD00BFF8B50E460024054612490460B3
:1012200030466C6018F058FC325C371821462F2A83
:101230003B462F6005D10EE02B6001311A782F2A32
:1012400009D00133002AF7D13846FFF75DFF034686
:1012500028466B60F8BD013338462B60FFF754FF1A
:10126000034628466B60F8BD440E020800687047CC
:1012700010B50446406838B1FFF7ACFF012803D130
:10128000606808B1043810BD002010BD406830B15E
:1012900008B5FFF79FFFB0FA80F0400908BD70471E
:1012A00010B50446406830B1FFF794FF18B9606884
:1012B00008B1043810BD002010BD00BF40680038E0
:1012C00018BF0120704700BF704700BF704700BFC4
:1012D000002070470020704700207047704700BF13
:1012E000F8B503688E18124C0546DA6D0F46A24217
:1012F00011D13C4606E05B6D14F8011B98470130A4
:101300000CD02B68B4422846F5D11B6E094A934293
:101310000AD1F01BF8BD90472B68EAE72B682646F8
:10132000044A1B6E9342F4D028469847F01BF8BD40
:10133000C9120008CD120008F8B503688E18154CC4
:101340000546DA6D0F46A2421FD1B74220D03C4677
:1013500004E004F8010BA6420DD02B689B6D2846D3
:101360009847431CF5D1E71B2B681B6E0A4A934232
:1013700007D13846F8BD2B68F71B074A1B6E93420E
:10138000F7D0284698473846F8BD90472B68DCE7E9
:101390000027EAE7C9120008CD120008104B00220E
:1013A00010B5044682B040F8043BFFF785FE0D4BB4
:1013B0000021204603F16C022360616162600A49EA
:1013C00000F062FC606120B100F09AFF204602B09C
:1013D00010BD0346024601460090044800F080FA22
:1013E000F00D0208C00E0208480E02081901018023
:1013F0000A4B03F10802743310B50446C0E9002318
:10140000406916F0D5F8064B204603F15C022360D4
:1014100040F8042FFFF7C0FD204610BDB80E0208AB
:10142000540E02080EB40368114ADB6D934230B5C6
:10143000044682B017D106AB0122002160690193F6
:1014400016F020FC019A059960691AF04DF923689D
:10145000084A05461B6E934207D1284602B0BDE8F4
:10146000304003B070479847E5E720469847F4E7D7
:10147000C9120008CD1200084FF0100300F00CB89C
:101480004FF0200300F008B84FF0300300F004B82C
:101490004FF0400300F000B8EFF308804FF0040174
:1014A00072460A4201D0EFF309809C46254B196829
:1014B00002680A60043142680A60043182680A6086
:1014C0000431C2680A600431F0C147460F6004313C
:1014D0004F460F60043157460F6004315F460F607E
:1014E000043102690A60083142690A600431826984
:1014F0000A600431C2690A600431034620334FF4A4
:101500000076324200D0043375464FF01006354263
:1015100000D148330C46103C2360EFF309820A6087
:101520000431EFF308820A60043172460A60043124
:10153000EFF314820A606046024B196800F080F8ED
:10154000FEE700000C110208F0B52F4F85B0002413
:101550002E4E3D462146013455F8042B304600F00E
:10156000F1F80D2CF6D1D7E911213B6C284C294814
:101570000093CDE90121D7E90E23796B00F0E2F861
:101580002168254800F0DEF8E16AA26AA36AA06A31
:10159000D2B2266BC3F30723E56B000C0295CDE9AD
:1015A00000061E4800F0CEF8A36A1D0626D4184B8C
:1015B0009A6A10041DD4FB6C190712D5184800F064
:1015C000C1F83B6DDA0710D4164800F0BBF8FB6C8D
:1015D0005B074CBF1448154805B0BDE8F04000F06B
:1015E000B1B8134800F0AEF8EEE7124800F0AAF8E0
:1015F000EDE7996B104800F0A5F8DCE7616B0F4848
:1016000000F0A0F8D3E700BFF8010020340F020873
:1016100000ED00E0440F0208940F0208A40F020836
:10162000141002083410020858100208641002084E
:10163000481002082410020804100208F40F0208DF
:1016400010B5044682B0164800F07CF8302C17D054
:10165000402C1FD0202C18D01248134C00F072F8E8
:10166000124800F06FF8FFF76FFF114800F06AF8BA
:10167000104A00232046D26B0F49009300F030F946
:101680000E480F4C00F05EF8EAE70E480E4C00F0F2
:1016900059F8E5E70D480E4C00F054F8E0E700BFBC
:1016A00070100208C41002083D01FF80D01002082B
:1016B000DC100208F8010020FC100208AC1002083F
:1016C0003F01FF809C1002083E01FF80B810020815
:1016D0004001FF8016F034BF17F0DEBB16F0CCB926
:1016E00015F0CABE00B589B0144E00F067F810219D
:1016F00001A8134DFFF7CEF80424039B3046019A4E
:101700001A6000F053FE019B049A30461B041360DC
:1017100000F04CFE013CF0D10424039B2846019AC2
:101720001A6000F043FE019B049A28461B041360D4
:1017300000F03CFE013CF0D1DEE700BFF0490200C2
:10174000801A06000FB400B5A3B0842124AB01A811
:1017500053F8042B00931AF04DF88328034606D95A
:101760000F4A10681279CDF883008DF88720002B7E
:1017700010DD002201A9022000F024FC00F01EF878
:1017800001A818F0FDF801A90246022000F01AFC99
:1017900000F01EF823B05DF804EB04B0704700BF02
:1017A00010110208EFF31080C04300F001007047F1
:1017B000EFF30580003818BF0120704708B5FFF728
:1017C0004BF8024A13680133136008BD440F002030
:1017D000044A136813B1013B136003B17047FFF76C
:1017E0004DB800BF440F002008B50E4B0121D3E8CF
:1017F0004F2FC3E8401FD2B20028F8D12AB1FFF71B
:10180000DDFFBFF34F8F20BFFDE7FFF7D1FF08B12A
:10181000FFF768FFFFF7C6FF0028F9D0012000F0AE
:1018200069FD00BF940F002070B51D4C90B01646A6
:101830000D4634EA200428BF04463422002103A8C0
:1018400017F0C4FA0295CDE90046FFF7B7FF154A35
:1018500013680133012B13600BD16D46124C0FCD71
:101860000FC40FCD0FC40FCD0FC495E80F0084E84F
:101870000F006C460D4D0E4E0FCC0FC50FCC0FC593
:101880000FCC0FC594E80F0085E80F00336813B143
:10189000A5F130009847FFF79BFF002010B070BD06
:1018A0000101FF80480F0020540F0020980F0020F6
:1018B0004C0F00200FB408B5074B0120D3E84F1F91
:1018C000C3E8420FC9B209B1FFF78EFF7246034861
:1018D000FFF7AAFFF8E700BF500F00200001FF80CC
:1018E000114608B54E4B0125D3E84F4FC3E8425F80
:1018F000E4B2002C00F090804A4A00234A4902F1E9
:101900003C0412F8010B93EA006354BF5B0081EAC8
:101910004303002BACBF5B0081EA4303002BACBF49
:101920005B0081EA4303002BACBF5B0081EA430309
:10193000002BACBF5B0081EA4303002BACBF5B0014
:1019400081EA4303002BACBF5B0081EA4303002B19
:10195000ACBF5B0081EA4303A242D2D152F8BC196A
:10196000994255D00121314800242F4A2346416332
:1019700084630546014600F13C0411F8010B93EA2B
:10198000006354BF5B0082EA4303002BACBF5B00E3
:1019900082EA4303002BACBF5B0082EA4303002BC7
:1019A000ACBF5B0082EA4303002BACBF5B0082EA62
:1019B0004303002BACBF5B0082EA4303002BACBFA8
:1019C0005B0082EA4303002BACBF5B0082EA430367
:1019D000A142D2D1EB63FFF7F1FE144D114C0FCDB4
:1019E0000FC40FCD0FC40FCD0FC495E80F0084E8CE
:1019F0000F00FFF7EDFEBFF34F8F0D490D4BCA6887
:101A000002F4E0621343CB60BFF34F8F00BFFDE7EA
:101A1000D2F8B4100131A6E77246FFF705FF6BE775
:101A2000500F002078020020B71DC104980F00203D
:101A300000ED00E00400FA05094AD2E85F3F0133F7
:101A4000C2E8513F0029F8D19BB203B1704700B5FD
:101A500083B01946034800931288FFF741FF00BF87
:101A6000D80F0020230104800A4AD2E85F1F013901
:101A7000C2E8531F002BF8D14FF6FF7089B28142A4
:101A800000D0704700B583B0194603480093128810
:101A9000FFF726FFD80F0020240104806FF01C0000
:101AA000704700BF6FF01500704700BF01207047FE
:101AB00000207047704700BFF8B5174652B1551E59
:101AC0004C1E054E0D4414F8011F304602F002FA78
:101AD000AC42F8D13846F8BD8836032038B511F04D
:101AE00001048DB203D1EB0609D4204638BD084865
:101AF00002F0B2FF041E18BF0124EB06F5D504481E
:101B000002F0BCFF0028F0D044F01004204638BD9D
:101B10008836032010B5044616F00AFD204610BD95
:101B20000AB91046704710B503480C4602F0BEF9DA
:101B300003460120237010BD8836032010B5184CD1
:101B40002378BFF35B8FDB071DD4237803F00303F7
:101B5000012B18D0237803F00302012A13D043F09D
:101B6000020323700F4B104A10491B68116063B1C8
:101B7000237823F0030343F0010323700C4A0D493B
:101B8000094800F0B5FB084810BD392238210A4841
:101B900002F0E6FD4FF41651074802F029FFE7E78F
:101BA000DC0F002024100020E80F00202011020884
:101BB000F8020020B51A00088836032010B5194C29
:101BC0002368BBB1184B032002E00130402817D036
:101BD00053F8042F002AF8D1144A4FF0FF3123683C
:101BE00042F8201003B110BD2368002BFBD1104B2D
:101BF000236010BD2368002BE4D1231D2360E1E79F
:101C000015F06AFC18222368026013B14FF0FF3010
:101C100010BD2368002BF9D1054B23604FF0FF3036
:101C200010BD00BFE00F00200803002000030020CB
:101C3000E40F002070B40F4D2B682E686BB10E4B73
:101C4000002403F5807153F8042F824208BF1C6002
:101C50008B42F8D13EB170BC7047002EEFD12B1DE6
:101C60002B602E68EBE72B68002BF4D1034B2B6025
:101C7000F1E700BFE00F0020FC020020E40F00208D
:101C8000002070470020704770B582B006460D46B0
:101C9000FFF794FF041E03DB264B43F824602BD090
:101CA000402329466846CDF801408DF8003015F0F4
:101CB0008BFE0546B0B13F2C2EDC1E4E56F824009C
:101CC000431C01D1022C1BDD30B30368DB6998474C
:101CD000041E1CDB0DD02846002117F073FB28469C
:101CE00002B070BD134B53F82420964214D143F830
:101CF0002450284602B070BD2546284602B070BD6B
:101D00002046FFF7BFFF60B146F82400DCE76442DD
:101D100015F0E2FB0460ECE715F0DEFB092303603D
:101D2000E7E72046FFF7ACFF0028EDD1FFF706FFFD
:101D3000EAE700BF000300200EB4F0B584B004460B
:101D4000FFF73CFF051E24DB0023214602A8019378
:101D5000FFF760FA02A8FFF7B1FA044610B302A831
:101D6000FFF794FA044602A8CCB9FFF781FA0646B9
:101D700060B3036802A89F68FFF778FA099B0246E0
:101D800001A93046B8470646B0B90198144B43F84C
:101D90002500284604B0BDE8F04003B07047FFF7C7
:101DA0007FFAF3E715F098FB13220D4B026043F81E
:101DB00025404FF0FF35ECE715F08EFB7642084BDF
:101DC000066043F825404FF0FF35E2E715F084FB4D
:101DD0001322034B026043F825604FF0FF35D8E72C
:101DE0000003002070B50E462F49054617F05CFC35
:101DF000D0B12E49284617F057FC70B12C4928461F
:101E000017F052FC48B32B78402B1BD026F400412E
:101E10002846BDE87040FFF78FBF264D6B68013341
:101E200009D00124204670BD224D04462B680133A1
:101E30000CD0204670BD0120FFF724FF18B3012409
:101E40006860F6E7D5F80140204670BDFFF71AFF3D
:101E5000034640B120462B6070BD164DAB68013380
:101E60000AD00224E5E7FFF70BFF03460028F1D173
:101E7000FFF764FE0346EDE70220FFF703FF50B1D2
:101E80000224A860D5E70120FFF7FAFE0028D6D18A
:101E9000FFF754FED3E70220FFF7F2FE0028EFD150
:101EA000FFF74CFEECE700BF7C110208841102082A
:101EB00074110208000300203F2838B5044624DCD2
:101EC0001C4D55F820305A1C01D102280BDD002290
:101ED00045F82420EBB11A68184653699847041E48
:101EE0001FDB002038BDFFF7CDFE034618B10022EE
:101EF00045F82420EFE72046FFF7C2FE03460028FE
:101F0000F5D1FFF71BFE0346E1E70A4B002243F839
:101F1000202015F0E1FA092203464FF0FF301A6045
:101F200038BD15F0D9FA644203464FF0FF301C600B
:101F300038BD00BF0003002070B5151E82B037DB2E
:101F400002D1284602B070BD3F2804461DDC1C4E5D
:101F500056F820305A1C09D1022807DC0191FFF7FE
:101F600091FE01990346B8B146F824306BB11C6864
:101F70002A461846E3689847051EE2DA15F0ACFADF
:101F80006B424FF0FF350360DBE715F0A5FA09233C
:101F90004FF0FF350360D4E72046FFF771FE01994B
:101FA00003460028E0D1FFF7C9FD01990346DBE7AE
:101FB00015F092FA16234FF0FF350360C1E700BF1A
:101FC000000300203F28F8B525DC1A4F16460446CA
:101FD0000D4657F820305A1C01D102280ADDD3B132
:101FE0001C68184632462946E3689847041E1ADBE7
:101FF0002046F8BDFFF746FE034610B147F82430EF
:10200000EDE72046FFF73CFE03460028F6D1FFF738
:1020100095FD0346F2E715F05FFA4FF0FF34092310
:1020200003602046F8BD15F057FA63424FF0FF34C5
:102030000360DDE700030020F8B5151E2EDB3F2806
:10204000044623DC1C4F0E4657F820305A1C01D1A1
:1020500002280ADDD3B11C6818462A463146A36817
:102060009847041E21DB2046F8BDFFF70BFE034610
:1020700010B147F82430EDE72046FFF701FE034694
:102080000028F6D1FFF75AFD0346F2E715F024FACF
:102090004FF0FF34092303602046F8BD15F01CFA09
:1020A00016234FF0FF340360DDE715F015FA6342A5
:1020B0004FF0FF340360D6E7000300203F2838B517
:1020C00028DC184D044655F820305A1C01D102284E
:1020D00008DDFBB11A681846D3699847041E08DB6F
:1020E000204638BDFFF7CEFD034648B145F8243001
:1020F000EFE715F0F1F9634200240360204638BD94
:102100002046FFF7BDFD03460028EFD1FFF716FD7F
:102110000346EBE715F0E0F90024092303602046AD
:1021200038BD00BF000300203F28F8B525DC1A4F5A
:10213000164604460D4657F820305A1C01D1022895
:102140000ADDD3B11C6818463246294623699847F0
:10215000041E1ADB2046F8BDFFF794FD034610B1BC
:1021600047F82430EDE72046FFF78AFD03460028B4
:10217000F6D1FFF7E3FC0346F2E715F0ADF94FF0B7
:10218000FF34092303602046F8BD15F0A5F963422A
:102190004FF0FF340360DDE7000300203F2838B52F
:1021A00022DC194D044655F820305A1C01D1022872
:1021B00009DDCBB11A68184693699847041E1BDBEA
:1021C0000023184638BDFFF75DFD034610B145F802
:1021D0002430EEE72046FFF753FD03460028F6D1F2
:1021E000FFF7ACFC0346F2E715F076F909224FF051
:1021F000FF330260184638BD644215F06DF94FF0A8
:10220000FF330460DDE700BF000300203F28F8B57E
:102210002EDC1B4F05460E4657F82040631C01D1AB
:10222000022814DD24B323682046DB699847024660
:1022300023682046002A9B6A14BF4FF400524FF4D3
:10224000004272609847002330611846F8BDFFF7DE
:1022500019FD044610B147F82540E3E72846FFF78B
:102260000FFD04460028F6D1FFF768FC0446F2E7AC
:1022700015F032F909224FF0FF3302601846F8BD1D
:1022800000030020012008B500F034F809490B686C
:1022900010B4C218084CA24204D818465DF8044B8A
:1022A0000A607047054B0C224FF0FF305DF8044B7D
:1022B0001A6070470004002000F007204437032014
:1022C0000A4D044608B52B68986815F03FFA2B684C
:1022D000D86815F03BFA0120FFF760FF0220FFF7F6
:1022E0005DFF04B9FEE7FFF7FDF900BF1005002010
:1022F0000120704708B5FFF7E3FF00BF01207047DA
:10230000002117F05FB800BF704700BF704700BFE3
:1023100008B5FFF7F9FF08BD08B5FFF7F7FF08BDDF
:10232000037803F00303012B09D0037803F00302C1
:10233000012A04D043F002030370012070470020FB
:10234000704700BF037823F0030343F001030370D9
:10235000704700BF16F0ECB8704700BF704700BF71
:102360000C4A0D48916808B54FF00053CA1802F1A5
:102370006042126843F8042B8342F7D1054B4FF0BB
:1023800000529A6002F048F802F02AFCFFF7E6FFDC
:1023900008BD00BF00ED00E0C801002008B5FFF750
:1023A000DBFFBDE8084013F0CDBE00BF034A516A11
:1023B000536A5B1A8342FBD3704700BF000C004096
:1023C0000E4A0F4BD2F888000E4940F4700070B4EA
:1023D000C2F88800002418680B4E40F001000B4D35
:1023E00018609C601868014019605E60196821F4EB
:1023F00080211960DC60956070BC704700ED00E0E2
:1024000000380240FFFFF6FE1030002400000008F4
:102410002F4A00282F4B116C0CBF4FF4803C4FF417
:10242000A02C41F080512DE9F0431164BBB0126C37
:1024300001250224022602F080524FF480074FF05B
:1024400004084FF0D809009208A8009A1A6842F4CC
:1024500040421A6002221B68CDF824C003F44043B6
:1024600008951494019309230199CDE90E67CDE9EC
:102470001089CDE9122300F011F920B10024204683
:102480003BB0BDE8F08300F0CDF804460028F5D15C
:102490000F26022700224FF4A0534FF48055072146
:1024A00002A80695CDE90267CDE9042300F0C8FA39
:1024B0000028E4D14FF4001316A83594169300F0C9
:1024C00007FCB0FA80F4640920463BB0BDE8F08315
:1024D0000038024000700040254B012002211A6C98
:1024E00042F08052F0B51A64BBB01B6C1026022477
:1024F000002503F08053D82702220C96019308266A
:1025000009230B9008A814910199CDE90845CDE95C
:102510000E45CDE91067CDE9122300F0BFF818B1E0
:10252000002420463BB0F0BD00F07CF804460028B3
:10253000F6D10F26022700224FF4A0534FF4805506
:10254000072102A80695CDE90267CDE9042300F032
:1025500077FA0028E5D14FF4001316A835941693A6
:1025600000F0B6FBB0FA80F4640920463BB0F0BD41
:102570000038024008B50120FFF74AFF00B108BD4E
:10258000FFF7AAFF0028FAD10148FFF793F900BF2F
:102590009C130208DFF820D0002103E0074B5B58B2
:1025A000435004310648074B42189A42F6D3FFF7CE
:1025B00007FFFDF745FE70470000082080660E0803
:1025C000F8020020D00E0020FEE70000704700BF98
:1025D00008B5094B03201A6842F400721A601A68A1
:1025E00042F480721A6000F009F80F2001F0F2FE48
:1025F000FFF7ECFF002008BD003C02400749000245
:10260000074BCA6800F4E06010B44FF6FF042240A4
:102610005DF8044B10430343CB60704700ED00E0CE
:102620000000FA051B4A1C4B116C41F0805170B53B
:10263000116482B0126C1D4602F080520192019A20
:102640001A6842F480321A6001F0CAFE044605E0BE
:1026500001F0C6FE001BB0F57A7F17D86B68DA036D
:10266000F6D52B680C4E43F400332B6001F0B8FE16
:10267000044605E001F0B4FE001BB0F57A7F05D8F2
:1026800073689B03F6D5002002B070BD032002B032
:1026900070BD00BF0038024000700040002800F00C
:1026A000898103682DE9F041DD0782B0044635D504
:1026B000AD498A6802F00C02042A00F0E7808A68BB
:1026C00002F00C02082A00F0DD806368B3F5803F59
:1026D00010D0002B00F00581B3F5A02FA24B1A6893
:1026E00000F06A8122F480321A601A6822F4802293
:1026F0001A6004E09C4A136843F48033136001F0CD
:102700006FFE994E054605E001F06AFE401BC828A1
:1027100000F2E38033689A03F6D523689F072AD531
:10272000914A916811F00C0F00F08C80916801F0D3
:102730000C01082900F08280E368002B00F0098179
:10274000894B1A681E4642F001021A6001F048FEE9
:10275000054605E001F044FE401B022800F2BD8062
:1027600033689807F6D53368226923F0F80343EA03
:10277000C203336023681A0728D45D073ED57A4B1D
:102780001A6CD0007CD41A6C012542F080521A6475
:102790001B6C03F080530193019B744B1A68D105A5
:1027A00040F18A80A368012B00F0EC80002B00F040
:1027B000AF80052B6C4B1A6F00F0068122F00102EE
:1027C0001A671A6F22F004021A67E0E06369002BAF
:1027D00043D0654B5A6F1E4642F001025A6701F022
:1027E000FFFD054604E001F0FBFD401B022874D804
:1027F000736F9B07F7D523685D07C0D4A369CBB17E
:10280000594A916801F00C01082922D0022B136863
:10281000154623F08073136000F0DE8001F0E0FDC8
:10282000044604E001F0DCFD001B022855D82B68AB
:102830009B01F7D4002002B0BDE8F0815268560237
:102840003FF57AAF484A1268950729D5E268012A10
:1028500026D0012002B0BDE8F081434B5A6F1E46DE
:1028600022F001025A6701F0BBFD054604E001F0C9
:10287000B7FD401B022830D8736F9F07F7D4BAE723
:1028800000258AE74A6850027FF51FAF364A126872
:1028900091037FF543AF6268002A7FF43FAFD8E72A
:1028A000314920690A6822F0F80242EAC0020A604F
:1028B0001A077FF562AF89E71A681F4642F48072F3
:1028C0001A6001F08DFD06463B68DA053FF56AAFF8
:1028D00001F086FD801B6428F6D9032002B0BDE814
:1028E000F081214B1A681E4622F480321A601A6861
:1028F00022F480221A6001F073FD054604E001F025
:102900006FFD401BC828E8D833689B03F7D404E761
:10291000154B41F288381A6F1F4622F001021A67E0
:102920001A6F22F004021A6701F05AFD064604E00D
:1029300001F056FD801B4045CFD83B6F9807F7D478
:10294000002D3FF45BAF084A136C23F080531364EF
:1029500054E7054B1A681E4622F001021A6001F086
:102960003FFD054609E000BF00380240007000400E
:1029700001F036FD401B0228AFD833689907F7D421
:102980002368F8E62D4A136F43F00103136701F043
:1029900027FD2A4F41F28838064604E001F020FD69
:1029A000801B404599D83B6F9B07F7D5002D3FF41E
:1029B00025AFC8E70120704742F480221A601A68E8
:1029C00042F480321A609AE642F004021A671A6FE3
:1029D00042F001021A67DAE701F002FD064605E05F
:1029E00001F0FEFC801B02283FF677AF2B689901AF
:1029F000F6D4D4E90732616A1343D4E90A2043EAE2
:102A00008113216B52080D4C43EA0063013A43EAFB
:102A1000017343EA02436B602B6843F080732B60C1
:102A200001F0DEFC054605E001F0DAFC401B02285F
:102A30003FF653AF23689A01F6D5FBE60038024013
:102A4000002800F0B380614A136803F00F038B4243
:102A50002DE9F04104460D460CD2136823F00F0314
:102A60000B431360136803F00F038B4202D0012065
:102A7000BDE8F0812368980714D5590704D5544957
:102A80008A6842F4E0528A601A0704D550498A687D
:102A900042F460428A604E49A0688A6822F0F002DF
:102AA00002438A60DF0721D56268494B012A1B680F
:102AB0007ED0022A77D09907D9D5454941F2883886
:102AC0008B680F4623F0030313438B6001F088FCEF
:102AD000064604E001F084FC801B40456BD8BB68CF
:102AE000626803F00C03B3EB820FF3D1374A13682B
:102AF00003F00F03AB4209D9136823F00F032B43F4
:102B00001360136803F00F03AB42B0D123685A0778
:102B100006D52F49E0688A6822F4E05202438A60B1
:102B20001B0730D42A498B6803F00C03042B38D0E0
:102B3000082B18D14A684B6802F03F02496813F429
:102B400080033AD02348C1F388110023A1FB000180
:102B50001DF000FF1E4B5B68C3F3014301335B00B4
:102B6000B0FBF3F300E01C4B194A0F201B4C92689A
:102B70001B49C2F30312A25CD3400B6001F02AFC94
:102B80000020BDE8F081124A2169936823F4604374
:102B900043EAC1030E4993608B6803F00C03042BD6
:102BA000C6D10C4BE0E7980187D460E7012070475D
:102BB0009E0382D45BE703205AE70748C1F38811DC
:102BC000A1FB00011DF0C6FEC4E700BF003C0240AF
:102BD0000038024000127A000024F400C4130208F6
:102BE00004040020164908B58B6803F00C03042B7D
:102BF0001BD0082B17D14A684B6802F03F02496886
:102C000013F4800313D10F48C1F38811A1FB000115
:102C10001DF0A0FE0A4B5B68C3F3014301335B0068
:102C2000B0FBF3F008BD074808BD074808BD0648DB
:102C3000C1F388110023A1FB00011DF08BFEE9E721
:102C4000003802400024F40000127A00044B054AC8
:102C50009B680549C3F382230868D35CD84070475A
:102C600000380240D413020804040020044B054A33
:102C70009B680549C3F342330868D35CD84070476A
:102C800000380240D4130208040400200E4B0F2227
:102C900002609A6802F0030242609A6802F0F00251
:102CA00082609A6802F4E052C2609B68DB0810B44C
:102CB00003F4E053054C036123685DF8044B03F013
:102CC0000F030B60704700BF00380240003C024019
:102CD00003682DE9F04313F0010583B004460BD0DF
:102CE0009F4A916821F400019160456B91682943E6
:102CF000B5FA85F56D09916013F4002610D0984956
:102D0000E66BD1F88C20B6F5801F22F4401242EA1F
:102D10000602C1F88C2000F0D281B6FA86F6760958
:102D2000DF0210D58E48216CD0F88C20B1F5800FD1
:102D300022F4400242EA0102C0F88C2000F0C28175
:102D4000002908BF012613F0807F18BF01259806CF
:102D500000F16D81D9060CD5814AD2F88C1021F092
:102D60008071C2F88C10D2F88C10A06B0143C2F8AD
:102D70008C105A0408D57A49606ED1F8902022F45C
:102D800040320243C1F890201F0408D57449A06E58
:102D9000D1F8902022F440220243C1F89020D803B9
:102DA00008D56F49E06ED1F8902022F4401202431A
:102DB000C1F89020990308D56949206FD1F8902077
:102DC00022F440020243C1F890205A0608D5644913
:102DD000606CD1F8902022F003020243C1F89020E9
:102DE0001F0608D55E49A06CD1F8902022F00C0295
:102DF0000243C1F89020D80508D55949E06CD1F8B4
:102E0000902022F030020243C1F89020990508D5A5
:102E10005349206DD1F8902022F0C0020243C1F83E
:102E200090205A0508D54E49606DD1F8902022F4C3
:102E300040720243C1F890201F0508D54849A06D93
:102E4000D1F8902022F440620243C1F89020D804C7
:102E500008D54349E06DD1F8902022F44052024356
:102E6000C1F89020990408D53D49206ED1F89020F2
:102E700022F440420243C1F890205A0208D5384952
:102E8000A06FD1F8902022F080620243C1F8902018
:102E90009F020CD53249E06FD1F89020B0F1006F5D
:102EA00022F0006208BF01260243C1F8902013F00F
:102EB000080F18BF0126580308D52949606FD1F8BB
:102EC000902022F040720243C1F89020190209D5E7
:102ED0002349D4F88000D1F8902022F08052024398
:102EE000C1F890205A0109D51D49D4F88400D1F8C1
:102EF000902022F000520243C1F890201F0109D512
:102F00001749D4F88800D1F88C2022F000720243CF
:102F1000C1F88C20D8000AD4B3F1007F15D0A5B930
:102F2000012E00F0D180002003B0BDE8F0830C49F1
:102F3000B3F1007FD4F88C00D1F88C2022F08062AD
:102F400042EA0002C1F88C20E9D1054B1A681F46FD
:102F500022F080621A6001F043FA054607E000BFE4
:102F60000038024001F03CFA401B64285BD83B6803
:102F70001901F7D42368DA0712D5626B82B9D7F842
:102F80008420D7F8845002F44032606805F0706500
:102F9000A1682A4342EA801242EA0172C7F88420FB
:102FA0001D0300F10F81D80204D5226CB2F5800F09
:102FB00000F00D81D90111D5A44D6068D5F88420A9
:102FC000D5F8847002F07062216907F0E0473A4357
:102FD00042EA801242EA0142C5F884209A010DD5E6
:102FE000236962681B04D4E9021043EA8213974AFA
:102FF00043EA006343EA0173C2F88430934B1A68D2
:103000001F4642F080621A6001F0EAF9054604E0CA
:1030100001F0E6F9401B642805D83B681B01F7D591
:10302000012E80D150E0032003B0BDE8F083874A31
:10303000874B116C984641F080511164126C02F07C
:1030400080520192019A1A6842F480721A6001F06B
:10305000C7F9074604E001F0C3F9C01B6428E2D8B1
:10306000D8F80030D905F6D5784F236B3A6F03F4C2
:10307000407112F4407211D091420FD03A6F386F04
:1030800022F4407240F480303867386F20F480308A
:1030900038673A673A6FD20700F1C380B1F5407FD5
:1030A00000F0B18069498A6822F4F8128A60674AA0
:1030B000C3F30B03116F0B43136723684AE6012523
:1030C00000262DE601253EE6604B1A681E4622F0DA
:1030D00080521A6001F084F9054604E001F080F99D
:1030E000401B64289FD833689F00F7D423681D03D2
:1030F00000F19280D8021DD5226CDAB95349656976
:10310000D1F88820D1F8886002F44032A06906F036
:10311000E046324342EA851242EA0062C1F8882062
:10312000D1F88C20A06A22F4F852013842EA002239
:10313000C1F88C20990215D5E26FB2F1006F11D160
:1031400042496569D1F88820D1F8886002F0706240
:10315000206A06F0E046324342EA851242EA004223
:10316000C1F888201A0719D5384A6569D2F888103D
:10317000D2F8883001F07061E06903F440330B430A
:1031800043EA851343EA0073C2F88830D2F88C30E2
:10319000E16A23F440330B43C2F88C302B4B1A689E
:1031A0001D4642F080521A6001F01AF9044605E00B
:1031B00001F016F9001B64283FF635AF2B689B0021
:1031C000F6D5B0E6E26BB2F5801F7FF4ECAE1F4D92
:1031D0006068D5F88420D5F8847002F44032E16844
:1031E00007F0E0473A4342EA801242EA0162C5F83A
:1031F0008420D5F88C10626A21F01F01013A0A433D
:10320000C5F88C20D6E6114812498268194022F48C
:10321000F8120A4382604AE7E26B002A3FF46EAF7D
:1032200068E701F0DDF841F28839804606E001F0F8
:10323000D7F8A0EB080048453FF6F5AE3B6F98077E
:10324000F5D5236B03F4407128E700BF0038024036
:1032500000700040FFFCFF0F704700BF00287DD0CA
:10326000F8B590F83D30044603F0FF02002B65D01E
:10327000226802233B49B2F1804F84F83D30A2EB33
:1032800001011368B1FA81F14FEA51113AD00029D6
:1032900038D1354D3548824218BFAA4232D0344F1A
:1032A00005F50065D71BAA42B7FA87F74FEA57170B
:1032B00049D0002F47D12F4F2F48824218BFBA4222
:1032C0000CBF012700274BD02C4DA0F59630824231
:1032D00018BFAA421FD000F58060824240D000F59E
:1032E000806082423CD0A16923F08003E0680B43F8
:1032F00061681360D062916201230020536184F8F9
:103300003D30F8BD1A4F23F07003A568D71B2B433F
:10331000B7FA87F77F09206923F44073A56903434F
:10332000E668606823F080032B431360D6629062E6
:1033300009B9002FE0D063691363DDE780F83C2012
:10334000FFF78AFF94E70E4823F07003A5688242D6
:1033500043EA0503DFD0002FDDD1ACE70120704741
:103360000027D8E7000001400004004000080040AA
:103370000004014000400140004401400048014079
:10338000000C00400368012202FA01F11A6A22EAE5
:10339000010210B41A620B4C1A6AA34241EA0201FC
:1033A00019620AD0084A934207D01A6800205DF8D3
:1033B000044B42F001021A6070475A6C42F400421A
:1033C0005A64F2E70000014000040140704700BF6A
:1033D000F8B504468368A849E669E768A74DD0E9CF
:1033E00004201A43236802431868AB4201EA000133
:1033F00042EA060242EA0102A1691A605868226A9A
:1034000020F4405042EA010240EA070058609968FF
:1034100021F4306142EA01029A604FD0984A934207
:103420001BD0984A934200F0CB80974A934200F019
:10343000D980964A93425ED0954A934279D0954A74
:10344000934200F0EF80944A934200F00181B6F578
:10345000004F2ED001221046F8BD02F5FA328F49F6
:10346000D2F8902002F00C028A5CB6F5004F17D01B
:10347000082AEFD801A151F822F000BF67350008F3
:10348000D33400084B3500085534000819350008BE
:10349000553400085534000855340008E534000858
:1034A000082A06D8DFE802F0827F79057005050555
:1034B0006200002101221046D960F8BD784AD2F896
:1034C000902002F00302013A022A72D9B6F5004FA9
:1034D00069D0FFF7CBFB21E0B2F5404FB7D1B6F58D
:1034E000004F43D060680022410801F50041B1FB64
:1034F000F0F189B2DFE702F5F432D2F8902002F45D
:103500004072B2F5007F1DD056D84AB3B2F5807F25
:103510009DD1B6F5004F37D0FFF764FB63680022FA
:10352000216800EB5300B0FBF3F39BB21046CB6075
:10353000F8BD02F59232D2F8902002F44062B2F562
:10354000006F61D1B6F5004F27D060680022554961
:1035500001EB5001B1FBF0F189B21046D960F8BD22
:10356000B6F5004F22D0FFF771FBD7E76168002264
:10357000480800F58030B0FBF1F0C0F3420120F0C4
:103580000F00014389B296E7FFF72CFB6168002228
:1035900023684C0804EB4000EDE7616800224248D4
:1035A00000EB5100E7E7FFF761FBEFE7FFF74EFBAA
:1035B000ECE73E498A5C58E7B2F5407F8FD046E79A
:1035C00002F5F832D2F8902002F03002202AB9D069
:1035D00004D8002AC4D0102A9BD038E7302A3FF400
:1035E0007EAF34E702F5F632D2F8902002F0C00246
:1035F000802AA7D004D8002AB2D0402A89D026E752
:10360000C02A3FF46CAF22E707D8002A3FF45EAF30
:10361000B2F5806F3FF47DAF19E7B2F5406F3FF42C
:103620005EAF14E702F5E032D2F8902002F4405287
:10363000B2F5005F86D006D8002A91D0B2F5805F3F
:103640003FF467AF03E7B2F5405F3FF448AFFEE6F3
:1036500002F5DE32D2F8902002F44042B2F5004F7B
:103660003FF470AF3FF638AF002A3FF479AFB2F5C0
:10367000804F3FF44EAFEAE6F369FFEF00100140E0
:103680000044004000480040004C00400050004012
:103690000014014000780040007C0040B413020890
:1036A000003802400024F4000048E801B01302088A
:1036B000436ADA0710B406D50168846A4A6822F4BE
:1036C000003222434A609C0706D50168C46A4A68F2
:1036D00022F4803222434A60590706D50168046B00
:1036E0004A6822F4802222434A601A0706D50168FC
:1036F000446B4A6822F4004222434A60DC0606D545
:103700000168846B8A6822F4805222438A60990699
:1037100006D50168C46B8A6822F4005222438A608D
:103720005A060AD50168046C4A68B4F5801F22F471
:10373000801242EA04024A600BD01B0606D50268DA
:10374000816C536823F400230B4353605DF8044BF2
:1037500070474A68446C22F4C00222434A60ECE796
:10376000002860D0F8B590F86930044603F0FF02F5
:10377000002B42D022682423204684F86930136845
:1037800023F001031360FFF723FE012833D0636A9F
:103790006BBB236800215A6822F490425A609A68F1
:1037A00022F02A029A601A6842F001021A60E16669
:1037B00000F016FE236806461A68120709D4202274
:1037C000002384F86920184684F86A2084F8683059
:1037D000F8BD6FF07E4705E000F002FE831BBB42A0
:1037E00023680FD2DD6915F40015F5D0E7E7204610
:1037F000FFF75EFFCDE70120F8BD80F86820FFF7F6
:10380000E5FDB7E71A682021032022F4D0721A6080
:103810009A6822F001029A6084F8691084F868506E
:1038200084F86A10F8BD0120704700BF164A9368FB
:1038300003F00C03042B0CD0082B0CD0134B124AB2
:10384000134892681349C2F30312825CD3400B60A1
:103850007047114BF3E7506851684302526801F01A
:103860003F0148BF0C4BC2F3881258BF074BB3FB54
:10387000F1F303FB02F3044A5268C2F3014201323E
:103880005200B3FBF2F3DAE7003802400024F40000
:10389000C41302080404002000127A002DE9F0414C
:1038A0001D4801F0F7F8041E34DB1C4E56F82400C6
:1038B00000282FD0C4EBC405194F4FEAC4082D01CE
:1038C0007B59DA6911060AD5DA69120607D51A6832
:1038D000110604D5134B01211B6898477B59DA69FF
:1038E00092060FD5DA6995060CD51A68900609D5A7
:1038F0000C4B002156F824001B689847A8EB0400E5
:1039000000013B58DA69110704D5DA69120701D5BD
:1039100008221A62BDE8F08100500040F00F00203C
:1039200008330320EC0F00202DE9F0411D4801F081
:10393000B1F8041E34DB1C4E56F8240000282FD0AA
:10394000C4EBC405194F4FEAC4082D017B59DA694D
:1039500011060AD5DA69120607D51A68110604D5C8
:10396000134B01211B6898477B59DA6992060FD5E2
:10397000DA6995060CD51A68900609D50C4B00211A
:1039800056F824001B689847A8EB040000013B5838
:10399000DA69110704D5DA69120701D508221A621B
:1039A000BDE8F081007C0040F00F002008330320C8
:1039B000EC0F00202DE9F0411D4801F06BF8041ECA
:1039C00034DB1C4E56F8240000282FD0C4EBC4056D
:1039D000194F4FEAC4082D017B59DA6911060AD53F
:1039E000DA69120607D51A68110604D5134B0121AE
:1039F0001B6898477B59DA6992060FD5DA699506F4
:103A00000CD51A68900609D50C4B002156F82400F5
:103A10001B689847A8EB040000013B58DA691107BE
:103A200004D5DA69120701D508221A62BDE8F081CF
:103A300000100140F00F002008330320EC0F00209D
:103A40002DE9F0411D4801F025F8041E34DB1C4E21
:103A500056F8240000282FD0C4EBC405194F4FEAB4
:103A6000C4082D017B59DA6911060AD5DA691206F4
:103A700007D51A68110604D5134B01211B68984716
:103A80007B59DA6992060FD5DA6995060CD51A6862
:103A9000900609D50C4B002156F824001B68984766
:103AA000A8EB040000013B58DA69110704D5DA6974
:103AB000120701D508221A62BDE8F0810014014006
:103AC000F00F002008330320EC0F00202DE9F04117
:103AD0001D4800F0DFFF041E34DB1C4E56F82400A6
:103AE00000282FD0C4EBC405194F4FEAC4082D019C
:103AF0007B59DA6911060AD5DA69120607D51A6800
:103B0000110604D5134B01211B6898477B59DA69CC
:103B100092060FD5DA6995060CD51A68900609D574
:103B20000C4B002156F824001B689847A8EB0400B2
:103B300000013B58DA69110704D5DA69120701D58B
:103B400008221A62BDE8F08100780040F00F0020E2
:103B500008330320EC0F00202DE9F0411D4800F050
:103B600099FF041E34DB1C4E56F8240000282FD089
:103B7000C4EBC405194F4FEAC4082D017B59DA691B
:103B800011060AD5DA69120607D51A68110604D596
:103B9000134B01211B6898477B59DA6992060FD5B0
:103BA000DA6995060CD51A68900609D50C4B0021E8
:103BB00056F824001B689847A8EB040000013B5806
:103BC000DA69110704D5DA69120701D508221A62E9
:103BD000BDE8F08100440040F00F002008330320CE
:103BE000EC0F00202DE9F0411D4800F053FF041EAA
:103BF00034DB1C4E56F8240000282FD0C4EBC4053B
:103C0000194F4FEAC4082D017B59DA6911060AD50C
:103C1000DA69120607D51A68110604D5134B01217B
:103C20001B6898477B59DA6992060FD5DA699506C1
:103C30000CD51A68900609D50C4B002156F82400C3
:103C40001B689847A8EB040000013B58DA6911078C
:103C500004D5DA69120701D508221A62BDE8F0819D
:103C600000480040F00F002008330320EC0F002034
:103C70002DE9F0411D4800F00DFF041E34DB1C4E01
:103C800056F8240000282FD0C4EBC405194F4FEA82
:103C9000C4082D017B59DA6911060AD5DA691206C2
:103CA00007D51A68110604D5134B01211B689847E4
:103CB0007B59DA6992060FD5DA6995060CD51A6830
:103CC000900609D50C4B002156F824001B68984734
:103CD000A8EB040000013B58DA69110704D5DA6942
:103CE000120701D508221A62BDE8F081004C00409D
:103CF000F00F002008330320EC0F002010B44068C0
:103D0000034C044B44F8202019605DF8044B7047C5
:103D1000F00F0020EC0F0020D0E9003070B4554CBB
:103D2000A34200F09B8032D8A4F53054A34278D04F
:103D30001DD9514CA3426BD1504E4FF400140123B6
:103D40004FF48A75C0EBC000002A3ED04C4A0001F7
:103D5000002957D111580A6842F020020A604949E7
:103D6000494A89684E5142F8234070BC7047A4F517
:103D70000064A34260D004F58064A34248D1434E5E
:103D800080240123DC25C0EBC000F2B1DEE7404C0B
:103D9000A3425AD004F58064A34208D13D4E80244A
:103DA00002234FF4AE75C0EBC00072B1CEE7A4F5AC
:103DB0001844A3422CD1384E4FF4002402234FF470
:103DC000C675C0EBC000002AC0D12D4A00011258B0
:103DD00081B9116821F02001116012681106C4D464
:103DE0002033294A42F82340BFF34F8FBFF36F8F30
:103DF00070BC7047116821F0800111601268920652
:103E0000EED5B2E711580A6842F080020A60A6E7D0
:103E1000002301244025C0EBC0001E46002AD4D058
:103E200094E71E4E4FF4801401234FF48875C0EBC5
:103E3000C000002AC9D089E7194E40240123D825A3
:103E4000C0EBC000002AC0D080E7164E202401231A
:103E5000D425C0EBC000002AB7D077E7124E4FF44C
:103E6000802402234FF4C475C0EBC000002AACD0FC
:103E70006CE700BF00780040005000409D3800080B
:103E80000833032000ED00E000E100E0E53B00081E
:103E900000100140413A000829390008713C00082F
:103EA000593B0008B5390008CD3A000838B504463A
:103EB0004568204600F0D0FD0028FAD0C5EBC505C6
:103EC000034B2D015B59586AC0F3080038BD00BF91
:103ED0000833032070B504460E464568204600F0BE
:103EE000CDFD0028FAD0C5EBC505034BC6F3080687
:103EF0002D015B599E6270BD0833032043692DE993
:103F0000F0410446D8070D4616D5A0683549A66885
:103F1000354A00EA0107A368814302EA0602334EEC
:103F200003EA060357D030498A4243D02F4A9342CE
:103F300046D02C4B9F4246D0E2686369990708D56A
:103F4000930706D02A4A00212A4B52F825001B6805
:103F50009847A26963696169C3F3402313EA520376
:103F600001D00F041ED4A36962695E07616916D58A
:103F7000500514D50A0406D51D4A07211D4B52F8D9
:103F800025001B68984763691B0409D5184A02215C
:103F9000184B52F825001B68BDE8F04118476369CB
:103FA000BDE8F081124A0521124B52F825001B682A
:103FB0009847D8E70D4A4FF480719342A16002D12F
:103FC0004FF48033A3600A4A01210A4B52F82500BE
:103FD0001B689847B0E70121A16003498A42A5D137
:103FE000E8E700BF0300000400030008000003101E
:103FF000101000201C10002000210148FFF77EBF98
:104000000064004001210148FFF778BF00680040CC
:1040100002210148FFF772BF00340040002101482F
:10402000FFF76CBF0064004000210148FFF766BF46
:104030000064004001210148FFF760BF00680040B4
:1040400001210148FFF75ABF0068004002210148E2
:10405000FFF754BF0034004002210148FFF74EBF74
:104060000034004000B58DB00A2800F28E80DFE8F1
:1040700000F014202C3844505C6874800600444BD7
:1040800044481A6B42F480621A631B6B03F480632A
:104090000B930B9B0DB05DF804FB3D4B3E481A6B38
:1040A00042F001021A631B6B03F001030193019BB1
:1040B000F0E7374B39481A6B42F002021A631B6B68
:1040C00003F002030293029BE4E7314B34481A6B7E
:1040D00042F004021A631B6B03F004030393039B77
:1040E000D8E72B4B2F481A6B42F008021A631B6B60
:1040F00003F008030493049BCCE7254B2A481A6B72
:1041000042F010021A631B6B03F010030593059B2A
:10411000C0E71F4B25481A6B42F020021A631B6B45
:1041200003F020030693069BB4E7194B20481A6B53
:1041300042F040021A631B6B03F040030793079B96
:10414000A8E7134B1B481A6B42F080021A631B6BE3
:1041500003F080030893089B9CE70D4B16481A6BED
:1041600042F480721A631B6B03F480730993099BFA
:1041700090E7074B11481A6B42F400721A631B6BED
:1041800003F400730A930A9B84E70D48FDF792FB42
:1041900000380240002802400000024000040240B3
:1041A00000080240000C02400010024000140240CF
:1041B00000180240001C024000200240002402407F
:1041C000DC1302084B1C70B504468CB0018231D060
:1041D000C1F303130D460A2B00F2A680DFE803F0BB
:1041E0002C3844505C6874808C980600504B514EBB
:1041F0001A6B42F480621A631B6B03F480630B93A7
:104200000B9B2846002100F05FF9238A05F00F057B
:10421000012003F00F03484900FA05F506F11002EA
:1042200051F8231006F1180366612560A161E3606F
:10423000C4E901230CB070BD3D4B404E1A6B42F0F7
:1042400001021A631B6B03F001030193019BD8E782
:10425000374B3B4E1A6B42F002021A631B6B03F0A2
:1042600002030293029BCCE7314B364E1A6B42F0AD
:1042700004021A631B6B03F004030393039BC0E760
:104280002B4B314E1A6B42F008021A631B6B03F082
:1042900008030493049BB4E7254B2C4E1A6B42F0A1
:1042A00010021A631B6B03F010030593059BA8E72C
:1042B0001F4B274E1A6B42F020021A631B6B03F050
:1042C00020030693069B9CE7194B224E1A6B42F083
:1042D00040021A631B6B03F040030793079B90E7B0
:1042E000134B1D4E1A6B42F080021A631B6B03F0D6
:1042F00080030893089B84E70D4B184E1A6B42F419
:1043000080721A631B6B03F480730993099B78E72F
:10431000074B134E1A6B42F400721A631B6B03F4C3
:1043200000730A930A9B6CE70E48FDF7C3FA00BFBF
:104330000038024000280240001402080000024039
:104340000004024000080240000C0240001002403D
:104350000014024000180240001C024000200240ED
:1043600000240240DC130208B0F9100000F084B908
:1043700010B4446991B98269216892FAA2F33BB101
:10438000B3FA83F303205B0000FA03F321EA03018D
:1043900092FAA2F221605DF8044B704783692168AC
:1043A00093FAA3F23AB1B2FA82F20320520000FA71
:1043B00002F221EA020193FAA3F333B10122B3FA24
:1043C00083F3934002FA03F3194321605DF8044B31
:1043D000704700BF08B500F0A9FB002008BD00BF72
:1043E00008B50A4B1B6833B9094A0A4B506AA3FB4C
:1043F0000030800908BDFCF7B9FDFCF717FD4FF44C
:104400007A7200231CF0A6FA08BD00BF201000201D
:10441000000C0040D34D6210294B5A6970B59403CB
:1044200015D45A6912F4003211D1BFF34F8FBFF384
:104430006F8FC3F85022BFF34F8FBFF36F8F5A694E
:1044400042F400325A61BFF34F8FBFF36F8F1C49A4
:104450004B69D80328D44B6913F4803324D1C1F8B5
:104460008430BFF34F8FD1F8805043F6E076C5F328
:104470004E34C5F3C905640104EA06002B4640EA40
:104480008372013BC1F860225A1CF8D1203C14F120
:10449000200FF1D1BFF34F8F4B6943F480334B6151
:1044A000BFF34F8FBFF36F8FFFF7C0F9FEF790F8A0
:1044B000FEF760F8FFF7BAF9024B01221A6070BDEF
:1044C00000ED00E020100020F8B56A4A03460D46D2
:1044D00000F00F01C0F303109FB252F8214005F025
:1044E0000706FFF7BFFD826894FAA4F33BB1B3FA65
:1044F00083F303215B0001FA03F322EA030294FA37
:10450000A4F333B1B3FA83F303215B0001FA03F39D
:104510001A43022E82606FD0032E52D0A6F10103FF
:10452000B3FA83F35B09016894FAA4F23AB1B2FAE0
:1045300082F20327520007FA02F221EA020194FAFA
:10454000A4F2002A77D0B2FA82F252009340013EE0
:104550000B43012E036005D843682A074CBF234351
:10456000A3434360C5F30115012D11D0022D2AD0BC
:10457000C26894FAA4F33BB1B3FA83F303215B005E
:1045800001FA03F322EA030294FAA4F4C260F8BD2C
:10459000C26894FAA4F33BB1B3FA83F303215B003E
:1045A00001FA03F322EA030294FAA4F4002CEDD0FA
:1045B0000123B4FA84F49C4003FA04F42243C26059
:1045C000F8BD3346AFE7C26894FAA4F33BB1B3FA3F
:1045D00083F303215B0001FA03F322EA030294FA56
:1045E000A4F4002CD2D0B4FA84F40223640003FAB9
:1045F00004F42243C260F8BD3F07C5F303211CD574
:10460000D0F824C0230A93FAA3F73FB1B7FA87F78B
:104610000F22BF0002FA07F72CEA070C93FAA3F364
:104620002BB3B3FA83F39A0001FA02F2022342EAAF
:104630000C02426277E7402288E7076A94FAA4F303
:104640003BB1B3FA83F30F229B0002FA03F327EA8C
:10465000030794FAA4F242B1B2FA82F2920001FA8C
:1046600002F202233A4302625DE78022F7E78022EA
:10467000DAE700BF0014020838B500F00F02374B2C
:10468000C0F303100D4653F82240FFF7EBFC01681E
:1046900094FAA4F333B1B3FA83F303225B0002FA72
:1046A00003F30B4094FAA4F2002A55D0B2FA82F236
:1046B0005200D340013B012B06D8EB1E022B43686E
:1046C00094BF2343A343436005F0FD03C268012B5D
:1046D0002AD0052D10D0022D0ED094FAA4F33BB1B0
:1046E000B3FA83F303215B0001FA03F322EA030226
:1046F00094FAA4F4C26038BD94FAA4F33BB1B3FABF
:1047000083F303215B0001FA03F322EA030294FA24
:10471000A4F4002CEED0B4FA84F40223640003FA6B
:1047200004F42243C26038BD94FAA4F33BB1B3FA57
:1047300083F303215B0001FA03F322EA030294FAF4
:10474000A4F4002CD6D00123B4FA84F49C4003FADC
:1047500004F42243C26038BD4022AAE700140208D4
:104760002DE9F0418846164688B0924904464046F5
:10477000FCF7E0F8054690493046FCF7DBF80146C7
:104780002846FCF7C3F8B8F1380F206006D0A6F130
:104790003907B7FA87F77F09002F32D0874B0127F7
:1047A000984239D0864B984242D1864B1A6C42F4DB
:1047B00000321A641B6C03F400330193019B824B9B
:1047C000984243D17F4B5A6C42F020025A645B6C92
:1047D00003F020030593059B7C4B984200F0D480A6
:1047E00003F58063984200F0CD8003F58063984222
:1047F00000F0CC8003F54443984240F0C980052086
:1048000032E06C493820FCF795F8A84200F0CC80E3
:1048100020686A4B9842C5D103F594335A6C42F034
:1048200010025A645B6C03F010030093009BC6E710
:1048300003F5806398425FD1624B1A6C42F4802288
:104840001A641B6C03F480230293029B604B984212
:104850005FD15C4B06201A6C42F080421A641B6CDC
:1048600003F080430693069B524960604046FCF784
:1048700027F851493046FCF723F8B8F1FF3F03D041
:1048800001214046FFF7F8FE731C03D0012130469A
:10489000FFF7F2FE636800254E4A4FF41651C3EB52
:1048A000C30366830136A4F8188002EB0310256267
:1048B0004FEA031E2368C4E90215C4E904554EF803
:1048C0000230A0F85250A0F85050A0F85A50A0F86A
:1048D0005850C0E90115C0E90355C0E9065527D075
:1048E000B8F1FF3F0CBF04230C234361FEF738FFF0
:1048F00027BB08B0BDE8F081374B984229D1314B36
:104900001A6C42F400221A641B6C03F40023039314
:10491000039B324B984230D12A4B07201A6C42F04D
:1049200000421A641B6C03F000430793079B9BE74C
:1049300008234361FEF714FF002FDAD0284B01252E
:1049400021464C2227481D6008B0BDE8F04114F014
:1049500037B9254B98427FF432AF1A4B1A6C42F4A8
:1049600080121A641B6C03F480130493049B144B91
:1049700098427FF431AF012076E7104B9842F6D190
:10498000002071E703206FE702206DE704206BE74A
:10499000A3F51C4398420AD003F58063984214BFE4
:1049A0004FF0FF3007205FE71048FCF783FF062039
:1049B0005AE700BF941202088C110208001001404F
:1049C000004400400038024000140140004800400C
:1049D0000078004008330320004C0040007C004079
:1049E00024100020883603200050004040140208A4
:1049F000F0B4D0E90063174D0246C3EBC3038160F6
:104A0000002405EB03101F017E514160D3688360D1
:104A10001369C36053690361136AA0F85240A0F898
:104A20005040A0F85A40A0F85840C0E90634B2F906
:104A30001A30013309D0B2F9183001330CBF042306
:104A40000C23F0BC4361FEF78BBE0823F0BC43612E
:104A5000FEF786BE083303204368074AC3EBC3034F
:104A60001B01D358DA69120701D508221A62D869E6
:104A7000C0F34010704700BF083303204368044A66
:104A8000C3EBC3031B01D358D869C0F3C0107047F0
:104A900008330320184B98421FD0A3F54C4398428B
:104AA0001FD003F5806398421DD003F580639842C0
:104AB00015D003F58063984217D003F5444398421C
:104AC00015D0A3F51C43984213D003F58063984298
:104AD00014BF4FF0FF3007207047002070470320BD
:104AE000704701207047022070470420704705205E
:104AF00070470620704700BF00100140074A084B6E
:104B000013601A69910702D5DA68920700D47047DA
:104B10006FF002021A61FCF72DBA00BFD4360320F1
:104B2000000C0040004870477814020870B588B047
:104B3000254C01A903A8FEF7A9F8FEF787F8234B37
:104B40004FF0FF3201902249E2601A6C42F00802F5
:104B50001A641A6C02F008020292029A1A6A42F06F
:104B600008021A621A6A22F008021A62069B216081
:104B700013BB184BA3FB00239B0C013B00251248E1
:104B800063602561A560144EC4E90555FEF766FB18
:104B9000124B4FF4802229469868A3F54063C0F871
:104BA00008615A600848FEF7EDFB2268D36823F0DD
:104BB0000203D36008B070BD43000648A0FB032386
:104BC0009B0C013BDAE700BFD436032000380240DB
:104BD000000C004083DE1B43FD4A000800ED00E0AE
:104BE000044800210268D36823F00203D360FEF773
:104BF000C9BB00BFD4360320014B586A704700BFC1
:104C0000000C0040054B6FF002021B6858631A61EC
:104C1000DA6842F00202DA60704700BFD43603203F
:104C2000064B6FF002021B681A615A6942F00202D9
:104C30005A61DA6842F00202DA607047D436032023
:104C4000034B1A68D36823F00203D360704700BF98
:104C5000D4360320024B6FF002021B681A617047C2
:104C6000D436032001308000704700BF88421AD03C
:104C7000B8B1B1FA81F35B0999B10A6830B405683B
:104C8000AA420BD1002D02DC0FE09D420DD050F85E
:104C9000044F013351F8042F9442F6D0002030BC69
:104CA00070470020704701207047012030BC7047DA
:104CB0000B2803D8024B53F8200070470148704777
:104CC000F4140208801402080EB400B582B0036820
:104CD00003AA9B6852F8041B0192984702B05DF842
:104CE00004EB03B0704700BF0CB400B583B0036899
:104CF00004AA9B6852F8041B0192984703B05DF820
:104D000004EB02B0704700BF38B50C4613460A28C2
:104D100032D8DFE800F00A0D1115191D2125292DC3
:104D200006000B2300200B7038BD01230B7038BD2B
:104D30000A2300200B7038BD022300200B7038BD01
:104D4000032300200B7038BD042300200B7038BDF6
:104D5000052300200B7038BD062300200B7038BDE2
:104D6000072300200B7038BD082300200B7038BDCE
:104D7000092300200B7038BD002502460349184660
:104D80002570FFF7A1FF012038BD00BF24150208E0
:104D900070B51D6882B016460446182118460422D4
:104DA0002B68984700284AD02368E31A1A880A2AF1
:104DB00040D9598900293DD0615C01293AD10C2A9A
:104DC00038D99B89002B35D0E218E358D41831D05C
:104DD000D358E31A198804293DD99A88002A46D065
:104DE000A256002A43D0012A14BF0022022206291B
:104DF000027032D9DA8802B1A258082942602ED94D
:104E00001A8902B1A2580A29826036D95A8922B178
:104E1000A25C551E042D88BF00220C29027323D9E1
:104E20009A8942B3A2580E29026122D9DB8903B3C1
:104E3000E3584361069B1860002002B070BD104823
:104E4000BD22104B31460190304600920E4AFFF7CA
:104E50004BFF0120F1E70122027000224260002294
:104E60000C2982600273DBD801230361E1E7012290
:104E7000BDE70123DDE70122D5E70022CDE700BF32
:104E8000A4150208481502088C15020870B51D68A3
:104E900082B0164604461C21184604222B68984707
:104EA000002850D02368E31A1A880A2A46D959895B
:104EB000002943D0615C022940D10C2A3ED99B894C
:104EC000002B3BD0E218E358D41837D0D358E31A5C
:104ED0001988042943D99A88002A4ED0A256002A5C
:104EE0004BD0012A14BF002202220629027038D9B1
:104EF000DA8802B1A2580829426034D91A8902B16D
:104F0000A2580A29826030D95A8902B1A2580C29C4
:104F1000C26038D99A8922B1A25C551E042D88BF7F
:104F200000220E29027425D9DA8942B3A258102929
:104F3000426126D91B8A23B3E3588361069B18601C
:104F4000002002B070BD1148DF22114B31460190A4
:104F5000304600920F4AFFF7C7FE0120F1E7012219
:104F60000270002242600022826000220E29C2608C
:104F70000274D9D801234361DFE70122B5E701229A
:104F8000D5E70123D9E70022CBE700BFA41502082B
:104F9000481502088C15020800207047F0B51D4620
:104FA0001B6883B0164607460421012228461B6869
:104FB000984700283ED03B680446FB1A1A880A2A04
:104FC00033D95989002930D0795C08292DD10C2A90
:104FD0002BD99B894BB3FA18FB58D01825D0D3583E
:104FE000C31A198804293ED99A8822B1825C571EB7
:104FF000042F88BF00220829227036D91A891AB1D5
:10500000825C003A18BF01220A29A27035D95A8958
:105010001AB1825C003A18BF0122E270DB884BB300
:10502000C3563BB3012B12D16370089B00201C6058
:1050300003B0F0BD124840F20B12124B3146019002
:1050400030460092104AFFF74FFE0120F0E730464D
:105050000E49FFF739FE2B68284621465B689847C2
:10506000012003B0F0BD0022227000220629A270A8
:10507000E270D3D800236370D7E70022CDE700BFEA
:10508000A4150208481502088C150208B815020874
:10509000F0B51C461B6883B016460746242104223F
:1050A00020461B689847002847D03B680546FB1AF6
:1050B0001A880A2A3CD95989002939D0795C1129E2
:1050C00036D10C2A34D99B89002B31D0FA18FB58E1
:1050D000D1182DD0D358CB1A1A88042A28D99B88E6
:1050E00033B3CA18CB58D11822D0D358082B31D893
:1050F000EBB14A68012B026019D08A68022B42602A
:1051000015D0CA68032B826011D00A69042BC260D3
:105110000DD04A69052B026109D08A69062B4261CC
:1051200005D0CA69072B826101D00A6AC2612B626D
:10513000089B00201D6003B0F0BD0D4840F23912FD
:105140000C4B31460190304600920B4AFFF7CCFDE4
:105150000120F0E7094A30460949FFF7B5FD236809
:10516000204629465B689847012003B0F0BD00BF88
:10517000A4150208481502088C150208E415020857
:10518000EC15020870B516461D68042282B004466C
:10519000184611462B68984708B322680346A21A9E
:1051A00011880A2916D95089A0B1205C092811D18B
:1051B0000C290FD992896AB1A118A258881809D070
:1051C0008A58821A1188042916D99288A2B11044EB
:1051D00002681A60069A0020136002B070BD07488A
:1051E00040F26912064B3146019030460092054A62
:1051F000FFF77AFD0120F0E70022EAE7A415020894
:10520000481502088C15020870B51D6882B0164654
:1052100004460821184604222B689847002832D0FB
:105220002368E31A1A880A2A28D9598931B3615C9C
:10523000062923D10C2A21D99B89FBB1E218E35816
:10524000D4181BD0D358E31A1988042928D99A886E
:1052500002B1A258062902602BD9DA8822B1A25CD9
:10526000551E042D88BF0022082902711ED91B89F2
:105270001BB1E35C003B18BF01234371069B186020
:10528000002002B070BD0C484FF4C1720B4B314688
:105290000190304600920A4AFFF726FD0120F0E710
:1052A00000221346026002714371E7E70023437155
:1052B000E4E70022D8E700BFA41502084815020859
:1052C0008C1502082DE9F04184B000250646904671
:1052D0000A9F3D607E2900F2A280DFE811F0D10133
:1052E000BF00990191012F0301037F007F007F0020
:1052F000FF077F00C907BF002E057F00F804830069
:10530000BF00C5047F007F007F003E087B05A60923
:105310001B070F0807087F007F0059077F007F00E9
:1053200023077F00B20899077F007F007F00A40059
:1053300017015F014301FA03B00365037F007F009B
:1053400037037F0099062E06E6067F007F001306CE
:105350007F007F007F007F007F007F007F007F0055
:105360007F007F00A006E1057F007F007F007F00B7
:105370007F00A4007F007F00C6057F0096055909C5
:10538000A400A40023097F00F4087F007F00CC0262
:10539000A4007F00A4007F007F007F007F007F00CB
:1053A000B20281027F004D027F001F02EB017F00ED
:1053B0007F007F007F007F007F007F007F007C08F0
:1053C0007F007F007F007F007F0046088F047F0002
:1053D0007F007F007F007F007F005404002004B026
:1053E000BDE8F0811C68184603930422246810214C
:1053F000A047039B0446002801F000843268B21ADB
:1054000011880A2901F2A38140469C490393FFF7C2
:105410005BFC039B1A681846214653689847012095
:1054200004B0BDE8F0811968012218460B681146E6
:105430009847002801F07E833368F31A1A880A2AF5
:1054400007D9598929B1715C1B2902D10C2A01F2B3
:1054500073843860002004B0BDE8F0811C681846F1
:105460000422282123689847002801F0EF8333683D
:10547000F31A1A880A2AECD959890029E9D0715CF3
:105480000529E6D10C2AE4D99B89002BE1D0F2183A
:10549000F358D118DDD0D358CB1A1C88042C41F214
:1054A00051829A88002A01F0AF828A56002A01F0C0
:1054B000AB82012A14BF00220222062C027041F2A4
:1054C0004382DA8802B18A58082C426041F23E8257
:1054D0001A8902B18A580A2C826041F239825A89AB
:1054E00002B18A580C2CC26041F234829A8902B10E
:1054F0008A580E2C026141F29784DB8923B1CB5C80
:105500005A1E042A88BF00230375A2E719680122E6
:1055100018460B6811469847002801F05B833368F2
:10552000F31A1A880A2A94D95989002991D0715CF2
:105530001C298ED10C2A8CD99B89002B89D0F2187A
:10554000F358D11885D0D358CB1A1A88042A41F2BF
:1055500006829B8823B1CB5C5A1E042A88BF002395
:10556000037076E71C6818460393042224682421FC
:10557000A047039B0446002801F0B3823268B21AA8
:1055800011880A2907D9508928B1305C1E2802D118
:105590000C2901F2698300203C6020E71968012290
:1055A00018460B6811469847002801F0AB82336813
:1055B000F31A1A880A2A7FF64CAF598900293FF45A
:1055C00048AF715C1D297FF444AF0C2A7FF641AFD0
:1055D0009B89002B3FF43DAFF218F358D1183FF4EC
:1055E00038AFD358CB1A1A88042A41F2A7819B8876
:1055F00023B1CB5C5A1E042A88BF0023037028E71E
:10560000424603210A9704B0BDE8F041FFF7C0BB52
:105610001C6818460422082123689847002801F0D6
:105620006D823368F31A1A880A2A7FF612AF5989F5
:1056300000293FF40EAF715C0A297FF40AAF0C2AEF
:105640007FF607AF9B89002B3FF403AFF218F358A6
:10565000D1183FF4FEAED358CB1A1A88062A41F26D
:10566000F980DA88002A41F0FD80002202719B88CF
:10567000002B01F0F480CB580360EAE650160208D4
:105680000C460122196818460B68114698470028F5
:1056900001F0CC823368F31A1A880A2A07D959898B
:1056A00029B1715C0B2902D10C2A01F229833860DF
:1056B000204694E61968012218460B68114698475F
:1056C000002801F05F823368F31A1A880A2A7FF6ED
:1056D000C0AE598900293FF4BCAE715C50297FF4FB
:1056E000B8AE0C2A7FF6B5AE9B89002B3FF4B1AE65
:1056F000F218F358D1183FF4ACAED358CB1A1A882D
:10570000042A41F220809B88002B01F01C80CB569C
:10571000042B14BF0223042303709AE619680422A1
:1057200018460B6811469847002801F02F8233680D
:10573000F31A1A880A2A7FF68CAE598900293FF499
:1057400088AE715C4F297FF484AE0C2A7FF681AE5F
:105750009B89002B3FF47DAEF218F358D1183FF42B
:1057600078AED358CB1A1A88042A41F231819B882B
:1057700003B1CB5803606CE61968012218460B6828
:1057800011469847002801F0DD813368F31A1A8822
:105790000A2A7FF65EAE598900293FF45AAE715C41
:1057A0004D297FF456AE0C2A7FF653AE9B89002B11
:1057B0003FF44FAEF218F358D1183FF44AAED35825
:1057C000CB1A1A88042A40F2B7879B88002B00F076
:1057D000B387CB56002B0CBF01230223037038E69E
:1057E0001968042218460B6811469847002801F0F2
:1057F000C5813368F31A1A880A2A7FF62AAE5989B6
:1058000000293FF426AE715C4B297FF422AE0C2AAE
:105810007FF61FAE9B89002B3FF41BAEF218F358A6
:10582000D1183FF416AED358CB1A1A88042A40F286
:1058300087879B88002B00F0838719440B680360DF
:1058400007E61C68184601220221236898470028B1
:1058500001F0B8813368F31A1A880A2A07D95989DE
:1058600029B1715C4A2902D10C2A01F2AB820023D2
:1058700003704370EDE51C68184604220821236874
:105880009847002801F09A813368F31A1A880A2A87
:105890007FF6DFAD598900293FF4DBAD715C40290B
:1058A0007FF4D7AD0C2A7FF6D4AD9B89002B3FF453
:1058B000D0ADF218F358D4183FF4CBADD358E31A57
:1058C0001988042941F265809A8802B1A2580629F4
:1058D000026041F2D882DB8803B1E3584360B8E547
:1058E0001968042218460B6811469847002801F0F1
:1058F0001D813368F31A1A880A2A7FF6AAAD5989DE
:1059000000293FF4A6AD715C5E297FF4A2AD0C2A9C
:105910007FF69FAD9B89002B3FF49BADF218F358A7
:10592000D1183FF496ADD358CB1A1A88042A41F205
:1059300056809B8803B1CB5803608AE54246042118
:105940000A9704B0BDE8F041FFF7A0BA1968042235
:1059500018460B6811469847002801F02B813368E0
:10596000F31A1A880A2A7FF674AD598900293FF480
:1059700070AD715C23297FF46CAD0C2A7FF669ADA4
:105980009B89002B3FF465ADF218F358D1183FF412
:1059900060ADD358CB1A1A88042A40F2F7879B8847
:1059A00003B1CB58036054E51C681846012204215A
:1059B00023689847002801F0A9803368F31A1A88F1
:1059C0000A2A7FF646AD598900293FF442AD715C41
:1059D00046297FF43EAD0C2A7FF63BAD9B89002B18
:1059E0003FF437ADF218F358D4183FF432ADD35822
:1059F000E31A1988062940F2F587DA88002A40F070
:105A0000FC87002242709A881AB1A25C003A18BF43
:105A100001220829027040F2EB871A891AB1A25CB0
:105A2000003A18BF01220A29827041F228825B895C
:105A30001BB1E35C003B18BF0123C37009E51C6880
:105A400018460422142123689847002801F0A280F8
:105A50003368F31A1A880A2A7FF6FBAC59890029A1
:105A60003FF4F7AC715C20297FF4F3AC0C2A7FF68D
:105A7000F0AC9B89002B3FF4ECACF218F358D4182F
:105A80003FF4E7ACD358E31A1A88042A40F274872B
:105A9000998801B16158062A016040F26F87D98860
:105AA00001B16158082A416040F26A87198901B141
:105AB00061580A2A816040F26587598901B16158AD
:105AC0000C2AC16041F2D8819B8903B1E35803617C
:105AD000BFE41C6818460422102123689847002858
